{
  "fileName": "GetContract.sol",
  "contractName": "A",
  "source": "pragma solidity ^0.6.2;\n\n\ncontract A {\n\nuint256 age;\n\nfunction getAge() public view returns (uint256){\n    return age;\n}\n\nfunction setAge(uint256 _age) public{\n    age=_age;\n}\n\n}",
  "sourcePath": "contracts/GetContract.sol",
  "abi": [
    {
      "inputs": [],
      "name": "getAge",
      "outputs": [
        {
          "internalType": "uint256",
          "name": "",
          "type": "uint256"
        }
      ],
      "stateMutability": "view",
      "type": "function"
    },
    {
      "inputs": [
        {
          "internalType": "uint256",
          "name": "_age",
          "type": "uint256"
        }
      ],
      "name": "setAge",
      "outputs": [],
      "stateMutability": "nonpayable",
      "type": "function"
    }
  ],
  "bytecode": "0x608060405234801561001057600080fd5b5060c78061001f6000396000f3fe6080604052348015600f57600080fd5b506004361060325760003560e01c8063967e6e65146037578063d5dcf127146053575b600080fd5b603d607e565b6040518082815260200191505060405180910390f35b607c60048036036020811015606757600080fd5b81019080803590602001909291905050506087565b005b60008054905090565b806000819055505056fea2646970667358221220a4af287eac8da7b7dcc1a9f277403083b0e169292e0e2e99bcf586ac039e9ba764736f6c634300060c0033",
  "compiler": {
    "name": "solc",
    "version": "0.6.12+commit.27d51765.Emscripten.clang",
    "optimizer": {
      "enabled": false,
      "runs": 200
    },
    "evmVersion": "petersburg"
  }
}