{
  "fileName": "CallContract.sol",
  "contractName": "B",
  "source": "pragma solidity ^0.6.2;\nimport \"./GetContract.sol\";\n\ncontract B{\nA public gc;\n\nconstructor(A add) public{\ngc=add;\n}\n\nfunction getAge() public view returns(uint256){\n    return gc.getAge();\n}\n\nfunction setAge(uint256 age) public returns(bool) {\n    gc.setAge(age);\n    return true;\n}\n\n}\n",
  "sourcePath": "contracts/CallContract.sol",
  "abi": [
    {
      "inputs": [
        {
          "internalType": "contract A",
          "name": "add",
          "type": "address"
        }
      ],
      "stateMutability": "nonpayable",
      "type": "constructor"
    },
    {
      "inputs": [],
      "name": "gc",
      "outputs": [
        {
          "internalType": "contract A",
          "name": "",
          "type": "address"
        }
      ],
      "stateMutability": "view",
      "type": "function"
    },
    {
      "inputs": [],
      "name": "getAge",
      "outputs": [
        {
          "internalType": "uint256",
          "name": "",
          "type": "uint256"
        }
      ],
      "stateMutability": "view",
      "type": "function"
    },
    {
      "inputs": [
        {
          "internalType": "uint256",
          "name": "age",
          "type": "uint256"
        }
      ],
      "name": "setAge",
      "outputs": [
        {
          "internalType": "bool",
          "name": "",
          "type": "bool"
        }
      ],
      "stateMutability": "nonpayable",
      "type": "function"
    }
  ],
  "bytecode": "0x608060405234801561001057600080fd5b5060405161030a38038061030a8339818101604052602081101561003357600080fd5b8101908080519060200190929190505050806000806101000a81548173ffffffffffffffffffffffffffffffffffffffff021916908373ffffffffffffffffffffffffffffffffffffffff16021790555050610276806100946000396000f3fe608060405234801561001057600080fd5b50600436106100415760003560e01c80631b71d85f14610046578063967e6e651461007a578063d5dcf12714610098575b600080fd5b61004e6100dc565b604051808273ffffffffffffffffffffffffffffffffffffffff16815260200191505060405180910390f35b610082610100565b6040518082815260200191505060405180910390f35b6100c4600480360360208110156100ae57600080fd5b81019080803590602001909291905050506101a9565b60405180821515815260200191505060405180910390f35b60008054906101000a900473ffffffffffffffffffffffffffffffffffffffff1681565b60008060009054906101000a900473ffffffffffffffffffffffffffffffffffffffff1673ffffffffffffffffffffffffffffffffffffffff1663967e6e656040518163ffffffff1660e01b815260040160206040518083038186803b15801561016957600080fd5b505afa15801561017d573d6000803e3d6000fd5b505050506040513d602081101561019357600080fd5b8101908080519060200190929190505050905090565b60008060009054906101000a900473ffffffffffffffffffffffffffffffffffffffff1673ffffffffffffffffffffffffffffffffffffffff1663d5dcf127836040518263ffffffff1660e01b815260040180828152602001915050600060405180830381600087803b15801561021f57600080fd5b505af1158015610233573d6000803e3d6000fd5b505050506001905091905056fea26469706673582212205bc15e44855d9d5db8d3012b38458dcc772b096ee53e4a27b995d775432fad0464736f6c634300060c0033",
  "compiler": {
    "name": "solc",
    "version": "0.6.12+commit.27d51765.Emscripten.clang",
    "optimizer": {
      "enabled": false,
      "runs": 200
    },
    "evmVersion": "petersburg"
  }
}