{
  "fileName": "D.sol",
  "contractName": "D",
  "source": "pragma solidity ^0.6.2;\nimport \"./C.sol\";\n\ncontract D{\nC c;\naddress[] public contracts;\n\n  // useful to know the row count in contracts index\n\n  function getContractCount() \n    public\n    view\n    returns(uint contractCount)\n  {\n    return contracts.length;\n  }\n\n  function newContract()\n    public\n    returns(address newContract)\n  {\n    c = new C();\n    contracts.push(address(c));\n    return address(c);\n  }\n\n  function useFunction() public view returns(string memory){\n      return c.getMessage();\n  }\n  }",
  "sourcePath": "contracts/D.sol",
  "abi": [
    {
      "inputs": [
        {
          "internalType": "uint256",
          "name": "",
          "type": "uint256"
        }
      ],
      "name": "contracts",
      "outputs": [
        {
          "internalType": "address",
          "name": "",
          "type": "address"
        }
      ],
      "stateMutability": "view",
      "type": "function"
    },
    {
      "inputs": [],
      "name": "getContractCount",
      "outputs": [
        {
          "internalType": "uint256",
          "name": "contractCount",
          "type": "uint256"
        }
      ],
      "stateMutability": "view",
      "type": "function"
    },
    {
      "inputs": [],
      "name": "newContract",
      "outputs": [
        {
          "internalType": "address",
          "name": "newContract",
          "type": "address"
        }
      ],
      "stateMutability": "nonpayable",
      "type": "function"
    },
    {
      "inputs": [],
      "name": "useFunction",
      "outputs": [
        {
          "internalType": "string",
          "name": "",
          "type": "string"
        }
      ],
      "stateMutability": "view",
      "type": "function"
    }
  ],
  "bytecode": "0x608060405234801561001057600080fd5b506105cb806100206000396000f3fe608060405234801561001057600080fd5b506004361061004c5760003560e01c80634313b53114610051578063474da79a1461008557806389039d16146100dd5780639399869d14610160575b600080fd5b61005961017e565b604051808273ffffffffffffffffffffffffffffffffffffffff16815260200191505060405180910390f35b6100b16004803603602081101561009b57600080fd5b8101908080359060200190929190505050610291565b604051808273ffffffffffffffffffffffffffffffffffffffff16815260200191505060405180910390f35b6100e56102cd565b6040518080602001828103825283818151815260200191508051906020019080838360005b8381101561012557808201518184015260208101905061010a565b50505050905090810190601f1680156101525780820380516001836020036101000a031916815260200191505b509250505060405180910390f35b610168610433565b6040518082815260200191505060405180910390f35b600060405161018c90610440565b604051809103906000f0801580156101a8573d6000803e3d6000fd5b506000806101000a81548173ffffffffffffffffffffffffffffffffffffffff021916908373ffffffffffffffffffffffffffffffffffffffff160217905550600160008054906101000a900473ffffffffffffffffffffffffffffffffffffffff169080600181540180825580915050600190039060005260206000200160009091909190916101000a81548173ffffffffffffffffffffffffffffffffffffffff021916908373ffffffffffffffffffffffffffffffffffffffff16021790555060008054906101000a900473ffffffffffffffffffffffffffffffffffffffff16905090565b6001818154811061029e57fe5b906000526020600020016000915054906101000a900473ffffffffffffffffffffffffffffffffffffffff1681565b606060008054906101000a900473ffffffffffffffffffffffffffffffffffffffff1673ffffffffffffffffffffffffffffffffffffffff1663ce6d41de6040518163ffffffff1660e01b815260040160006040518083038186803b15801561033557600080fd5b505afa158015610349573d6000803e3d6000fd5b505050506040513d6000823e3d601f19601f82011682018060405250602081101561037357600080fd5b810190808051604051939291908464010000000082111561039357600080fd5b838201915060208201858111156103a957600080fd5b82518660018202830111640100000000821117156103c657600080fd5b8083526020830192505050908051906020019080838360005b838110156103fa5780820151818401526020810190506103df565b50505050905090810190601f1680156104275780820380516001836020036101000a031916815260200191505b50604052505050905090565b6000600180549050905090565b6101488061044e8339019056fe608060405234801561001057600080fd5b50610128806100206000396000f3fe6080604052348015600f57600080fd5b506004361060285760003560e01c8063ce6d41de14602d575b600080fd5b603360ab565b6040518080602001828103825283818151815260200191508051906020019080838360005b8381101560715780820151818401526020810190506058565b50505050905090810190601f168015609d5780820380516001836020036101000a031916815260200191505b509250505060405180910390f35b60606040518060600160405280602781526020016100cc6027913990509056fe436f6e747261637420686173206265656e206465706c6f796564205375636365737366756c6c79a2646970667358221220cc823b4cd06464ff1d2bfdb5c14d7ae5146dd0e50b770e1fd307c8e1d15bd7e964736f6c634300060c0033a2646970667358221220f41544eb26657cedd77e0c0527f41f80d4bff6b8c238e1df272d79de25f48a6764736f6c634300060c0033",
  "compiler": {
    "name": "solc",
    "version": "0.6.12+commit.27d51765.Emscripten.clang",
    "optimizer": {
      "enabled": false,
      "runs": 200
    },
    "evmVersion": "petersburg"
  }
}